S01700004763634170706C69636174696F6E312E737265635B
S113000045C0000058C0000056C0000054C00000A5
S113001052C0000050C000004EC000004CC00000A0
S11300204AC0000048C0000046C0000044C00000B0
S113003042C0000040C000003EC000003CC00000C0
S11300403AC0000038C0000036C0000034C00000D0
S113005032C0000030C000002EC000002CC00000E0
S11300602AC0000028C0000026C0000024C00000F0
S113007022C0000020C000001EC000001CC0000000
S11300801AC0000018C0000016C0000011241FBED2
S1130090CFEFD0E1DEBFCDBF11E0A0E0B1E0E4E3FB
S11300A0F6E000E00BBF02C007900D92A431B10747
S11300B0D9F7BDD0BDC2A4CF8BB3806F8BBB8AB33D
S11300C08F708ABB8BB384608BBB8BB384608BBB18
S11300D099B3907F8BB38B7F8BBB8BB384608BBBCB
S11300E08BB384608BBB89B32BB32B7F2BBB8295E3
S11300F08F70892B08952BB32F70382F307F40E1F8
S1130100849FC0011124922F932B9BBB9BB39460BB
S11301109BBB9BB39B7F9BBB822B8BBB8BB38460B2
S11301208BBB8BB38B7F8BBB0895CF93DF931F92D5
S1130130CDB7DEB78BB38E7F8BBB8BB382608BBBAB
S1130140BBDF898389818823ACF38BB38D7F8BBB21
S11301508FEF8ABB0F90DF91CF9108958FEF8ABB09
S11301608ABB8BB38E7F8BBB8BB38D7F8BBB8BB3E7
S11301708B7F8BBB8BB384608BBB8BB380628BBB5D
S11301808BB38B7F8BBBD1DF88E2B5DFCEDF8BB344
S11301908E7F8BBB8EE0AFDFC8DF8BB38E7F8BBBD4
S11301A086E0A9DFC2CF0895282F30E0215031091D
S11301B0862F90E4299F800D11249BB39E7F9BBBC7
S11301C0815899DFB2CF08958BB38E7F8BBB81E0CA
S11301D092DFABCF08959BB391609BBB8CDFA5CF1F
S11301E008950F931F93CF938C01C0E002C0F3DFF7
S11301F0CF5FF801EC0FF11D80818111F8CFCF9111
S11302001F910F91089581E487B987E886B908950D
S113021086B1806486B93699FECF84B195B10895CC
S113022087B38F7B87BB87B3806887BB0895EBDF79
S1130230F7DF94DFC9DF81E0EBDFBC0180E090E011
S1130240DFD020E030EC4FE754E441D020E030E050
S113025040EA50E463D120E030E04AE754E45ED160
S113026020E030E040E251E432D099D0EB0180E06C
S113027091E0B7DF61E082E097DF8CE091E0B1DFED
S1130280CE016AE070E0ADD1182F80E3860FA3DFC2
S113029080E3810FA0DF8FED9EDF6E973CF088B383
S11302A0806488BB88B38F7788BB06C088B38F7B94
S11302B088BB88B3806888BB2FEF8FE796E1215015
S11302C080409040E1F700C000007EDFB4CF0CD046
S11302D0EBC0E3D040F0DAD030F021F45F3F19F006
S11302E0CCC0511115C1CFC0F0D098F39923C9F3F4
S11302F05523B1F3951B550BBB27AA276217730728
S1130300840738F09F5F5F4F220F331F441FAA1FDB
S1130310A9F333D00E2E3AF0E0E830D0915050409B
S1130320E695001CCAF729D0FE2F27D0660F771F49
S1130330881FBB1F261737074807AB07B0E809F02B
S1130340BB0B802DBF01FF2793585F4F2AF09E3FC0
S1130350510568F092C0DCC05F3FECF3983EDCF3DB
S1130360869577956795B795F7959F5FC9F7880F39
S1130370911D9695879597F90895E1E0660F771F8B
S1130380881FBB1F621773078407BA0720F0621B1C
S1130390730B840BBA0BEE1F88F7E095089504D015
S11303A06894B111B5C0089598D088F09F5790F023
S11303B0B92F9927B751A0F0D1F0660F771F881F86
S11303C0991F1AF0BA95C9F712C0B13081F09FD0C5
S11303D0B1E008959CC0672F782F8827B85F39F063
S11303E0B93FCCF3869577956795B395D9F73EF4E5
S11303F090958095709561957F4F8F4F9F4F08958D
S1130400E89409C097FB3EF49095809570956195AA
S11304107F4F8F4F9F4F9923A9F0F92F96E9BB2760
S11304209395F695879577956795B795F111F8CFDC
S1130430FAF4BB0F11F460FF1BC06F5F7F4F8F4F47
S11304409F4F16C0882311F096E911C0772321F03D
S11304509EE8872F762F05C0662371F096E8862FD5
S113046070E060E02AF09A95660F771F881FDAF72C
S1130470880F9695879597F9089597F99F6780E86F
S113048070E060E008959FEF80EC089500240A94E2
S11304901616170618060906089500240A9412165B
S11304A01306140605060895092E0394000C11F48E
S11304B0882352F0BB0F40F4BF2B11F460FF04C03B
S11304C06F5F7F4F8F4F9F4F089557FD9058440F94
S11304D0551F59F05F3F71F04795880F97FB991F9F
S11304E061F09F3F79F0879508951216130614065C
S11304F0551FF2CF4695F1DF08C0161617061806E9
S1130500991FF1CF86957105610508940895E894C3
S1130510BB2766277727CB0197F908950BD0C4CF63
S1130520B5DF28F0BADF18F0952309F0A6CFABCFDA
S11305301124EECFCADFA0F3959FD1F3950F50E0BD
S1130540551F629FF001729FBB27F00DB11D639F81
S1130550AA27F00DB11DAA1F649F6627B00DA11D27
S1130560661F829F2227B00DA11D621F739FB00DCD
S1130570A11D621F839FA00D611D221F749F33273D
S1130580A00D611D231F849F600D211D822F762FD6
S11305906A2F11249F5750408AF0E1F088234AF0D3
S11305A0EE0FFF1FBB1F661F771F881F915050401F
S11305B0A9F79E3F510570F060CFAACF5F3FECF3DF
S11305C0983EDCF3869577956795B795F795E7950B
S11305D09F5FC1F7FE2B880F911D9695879597F91C
S11305E0089597FB072E16F4009406D077FD08D0E3
S11305F00BD007FC05D03EF4909581959F4F08954C
S1130600709561957F4F0895AA1BBB1B51E107C0EC
S1130610AA1FBB1FA617B70710F0A61BB70B881F8E
S1130620991F5A95A9F780959095BC01CD0108951D
S1070630F894FFCF68
S113063448656C6C6F20776F726C640054454D5040
S10706443A20000054
S9030000FC
