S01A00006E686F6D322D7765656B352D4B45595041442E737265632D
S113000045C0000060C000005EC000005CC000008D
S11300105AC0000058C0000056C0000054C0000080
S113002052C0000050C000004EC000004CC0000090
S11300304AC0000048C0000046C0000044C00000A0
S113004042C0000040C000003EC000003CC00000B0
S11300503AC0000038C0000036C0000034C00000C0
S113006032C0000030C000002EC000002CC00000D0
S11300702AC0000028C0000026C0000024C00000E0
S113008022C0000020C000001EC0000011241FBEBA
S1130090CFEFD0E1DEBFCDBF11E0A0E0B1E0EEE1F3
S11300A0F3E000E00BBF02C007900D92A431B1074A
S11300B0D9F721E0A4E1B1E001C01D92A533B20754
S11300C0E1F7E5D02AC19CCF8BB3806F8BBB8AB399
S11300D08F708ABB8BB384608BBB8BB384608BBB08
S11300E099B3907F8BB38B7F8BBB8BB384608BBBBB
S11300F08BB384608BBB89B32BB32B7F2BBB8295D3
S11301008F70892B08952BB32F70382F307F40E1E7
S1130110849FC0011124922F932B9BBB9BB39460AB
S11301209BBB9BB39B7F9BBB822B8BBB8BB38460A2
S11301308BBB8BB38B7F8BBB0895CF93DF931F92C5
S1130140CDB7DEB78BB38E7F8BBB8BB382608BBB9B
S1130150BBDF898389818823ACF38BB38D7F8BBB11
S11301608FEF8ABB0F90DF91CF9108958FEF8ABBF9
S11301708ABB8BB38E7F8BBB8BB38D7F8BBB8BB3D7
S11301808B7F8BBB8BB384608BBB8BB380628BBB4D
S11301908BB38B7F8BBBD1DF88E2B5DFCEDF8BB334
S11301A08E7F8BBB8EE0AFDFC8DF8BB38E7F8BBBC4
S11301B086E0A9DFC2CF0895282F30E0215031090D
S11301C0862F90E4299F800D11249BB39E7F9BBBB7
S11301D0815899DFB2CF08958BB38E7F8BBB81E0BA
S11301E092DFABCF08959BB391609BBB8CDFA5CF0F
S11301F0089550E030C0652F70E09B012C5F3F4FA5
S113020081E090E002C0880F991F2A95E2F780955B
S113021085BB88E18A95F1F700C093B39F709F3046
S1130220B1F418C0282F30E0F901E05FFE4F40819F
S113023094130BC0220F331F220F331F20503F4F44
S1130240F901E60FF71F808108958F5F01C080E0F8
S1130250843040F35F5F543070F280E00895E19998
S1130260FECF8EBB9FBB8CB381608CBB8DB30895D6
S1130270E199FECF8EBB9FBB6DBB9FB7F8948CB347
S113028084608CBB8CB382608CBB9FBF08958FE06D
S113029085BB80EF84BB6ADF9FDF87B3806887BB41
S11302A08CE090E0DCDFC82F68E081E085DF8C2FF4
S11302B09ADF9FDF8093140188B3806888BB8091A4
S11302C014018823B1F38D3359F061E081E074DFC8
S11302D08091140188DF609114018CE090E0C8DF04
S11302E0809114018D3329F78CE090E0B8DFC82F9A
S11302F068E081E061DF8C2F76DF88B38F7788BB7D
S11303002FEF8FE796E1215080409040E1F700C045
S1110310000088B3806888BBCCCFF894FFCF80
S113031E3738392F3435362A3132332D4E303D2B82
S107032E0E0D0B079A
S9030000FC
